:100000001006002091190000FD190000051A0000DB
:100010000D1A00000D1A00000D1A0000000000006B
:100020000000000000000000000000000D1A0000A9
:100030000D1A0000000000000D1A00000D1A00004B
:100040000D1A00000D1A00000D1A00000D1A000014
:100050000D1A00000D1A00000D1A00000D1A000004
:100060000D1A00000D1A00000D1A00000D1A0000F4
:100070000D1A00000D1A00000D1A00000D1A0000E4
:100080000D1A00000D1A00000D1A00000D1A0000D4
:100090000D1A00000D1A00000D1A00000D1A0000C4
:1000A0000D1A00000D1A00000D1A00000D1A0000B4
:1000B0000D1A00000D1A00000D1A00000D1A0000A4
:1000C0000D1A00000D1A00000D1A00000D1A000094
:1000D0000D1A00000D1A00000D1A00000D1A000084
:1000E0000D1A000000000000000000000D1A0000C2
:1000F0000D1A00000D1A00000D1A00000D1A000064
:100100000D1A00000D1A00000D1A00000D1A000053
:1001100000000000000000000D1A00000D1A000091
:100120000D1A00000D1A00000D1A00000D1A000033
:100130000D1A00000D1A00000D1A00000D1A000023
:1001400000000000000000000000000000000000AF
:100150000D1A00000D1A00000D1A00000D1A000003
:10016000000000000000000000000000000000008F
:10017000000000000000000000000000000000007F
:10018000000000000000000000000000000000006F
:10019000000000000000000000000000000000005F
:1001A000000000000000000000000000000000004F
:1001B0000D1A00000D1A00000D1A00000D1A0000A3
:1001C0000D1A00000D1A00000D1A00000D1A000093
:1001D0000D1A00000D1A00000D1A00000D1A000083
:1001E0000D1A00000D1A00000D1A0000000000009A
:1001F000000000000D1A00000D1A00000D1A00008A
:100200000D1A00000D1A00000000000000000000A0
:100210000D1A00000D1A00000D1A00000D1A000042
:100220000D1A00000D1A00000D1A00000D1A000032
:100230000D1A00000D1A00000D1A00000D1A000022
:100240000D1A00000D1A00000D1A00000D1A000012
:100250000D1A00000D1A00000D1A00000D1A000002
:100260000D1A00000D1A00000D1A000080B500AF35
:10027000114801F03EFF012001F002FF40F2014071
:1002800001F0FEFE03214FF0402001F0EAFE01F0F4
:1002900041FF014660234FF416724FF0402001F0F9
:1002A000E8FF01F037FF03461A464FF416710020AD
:1002B00001F0B0FB00BF80BD000800F090B599B020
:1002C00000AF0023FB6576E0FB6D002B1BD1002304
:1002D000BB653C493C4802F04DFC78650FE0786D09
:1002E00002F0E2FB0146394ABB6D42F82310BB6DB8
:1002F0000133BB653349002002F03CFC78657B6D1F
:10030000002BECD154E000233B65FA6D13461B0132
:100310009B1A5B002C4A13442A49184602F02AFC17
:10032000F86411E039463A6D13461B019B1A0B44E1
:10033000F96C184602F0C0FB3B6D01333B65214967
:10034000002002F017FCF864FB6C002BEAD1FB6D77
:100350005C1E3B46184602F0A7FB01461C4A23469A
:100360009B0023449B00134419601A4A3B460F33F9
:100370001360FB6D5A1E13469B0013449B00144AE6
:1003800013441A1D134B1B681946104602F094FBC8
:10039000FB6D5C1E3B461E33184602F085FB014692
:1003A0000B4A23469B0023449B00134410331960DF
:1003B000FB6D0133FB65FB6D052B85DD00BF6437ED
:1003C000BD4690BD302D000000000020CC0600206E
:1003D000340600201C06002080B400AF394A394B97
:1003E0001B6843F001031360364B1B68364A1360E9
:1003F000364A364B1B6823F0E0031360344A344B13
:100400001B68C3F313031360324A324B1B6843F07B
:10041000E0031360304A304B1B6823F0E0031360A5
:100420002E4A2E4B1B6843F0E00313602C4A2C4BE2
:100430001B6843F0E0031360224A224B1B6843F021
:10044000020313601F4B1B681F4A1360254A254B8C
:100450001B6823F0FF031360234B1B68224B002211
:100460001A60224A214B1B6843F0FF031360204AA5
:100470001F4B1B6823F0FF0313601E4A1D4B1B68B4
:1004800043F0FF0313601C4A1B4B1B6843F0FF0340
:1004900013600C4A0B4B1B6843F010031360094BAD
:1004A0001B68094A1360154A144B1B681360144AF1
:1004B000134B1B6843F01F03136000BFBD465DF87C
:1004C000047B704708E10F40B0060020284500403B
:1004D0002C45004000440040204400401C450040A2
:1004E00008450040285500402C550040005400406D
:1004F000205400401C550040085500400044024074
:100500001C45024080B483B000AF0346FB711E4A15
:100510001D4B1B6823F0E00313601C4AFB7913603A
:10052000194A194B1B6843F080031360164A164B97
:100530001B6823F060031360154B00221A6004E06F
:10054000134B1B680133124A1360114B1B68002BBD
:10055000F6D00D4A0C4B1B6823F0E00313600C4BE4
:1005600000221A6004E00A4B1B680133084A13603A
:10057000074B1B68B3F57A7FF5D300BF0C37BD4638
:100580005DF8047B704700BFFC430040FC53004013
:10059000B006002080B483B000AF0346FB711B4A55
:1005A000FB7913601A4A1A4B1B6843F0C0031360AF
:1005B000174A174B1B6823F020031360154B0022CA
:1005C0001A6004E0134B1B680133124A1360114B8D
:1005D0001B68162BF6D90E4A0D4B1B6823F0E0035F
:1005E00013600C4B00221A6004E00A4B1B680133B5
:1005F000084A1360074B1B68B3F57A7FF5D300BF39
:100600000C37BD465DF8047B704700BFFC530040CB
:10061000FC430040B006002080B500AFFFF7DCFED1
:10062000254B00221A6004E0234B1B680133224A49
:100630001360214B1B6843F697229342F4D938206C
:10064000FFF760FF1C4B00221A6004E01A4B1B6886
:100650000133194A1360184B1B6841F287329342E9
:10066000F4D93820FFF74EFF134B00221A6004E044
:10067000114B1B680133104A13600F4B1B68952BFD
:10068000F6D90C20FFF73EFF0120FFF73BFF0620C5
:10069000FFF738FF084B00221A6004E0064B1B6886
:1006A0000133054A1360044B1B684CF24F329342EE
:1006B000F4D900BF80BD00BFB006002080B586B071
:1006C00000AFF860B9607A60FB68012B01D180232C
:1006D00000E0C0237B617B69DAB2BB68DBB2134404
:1006E000DBB21846FFF70EFF06E07B685A1C7A6003
:1006F0001B781846FFF74EFF7B681B78002BF4D160
:1007000000BF1837BD4680BD80B400AF264B1B68C4
:1007100003F01003002B41D0234B1B6803F0200390
:10072000002B39D0204B1B6803F00803002B31D07D
:100730001D4B1B6803F00403002B29D01A4B1B68C8
:1007400003F00203002B21D0174B1B6803F00103B9
:10075000002B19D0154B1B6803F00103002B11D09F
:10076000124B1B6803F01003002B09D00F4B1B68C2
:1007700003F00203002B01D1092310E000230EE057
:1007800008230CE007230AE0062308E0052306E01F
:10079000042304E0032302E0022300E001231846BF
:1007A000BD465DF8047B7047FC430240FC530240A9
:1007B00080B483B000AF134A124B1B6843F01003A0
:1007C0001360114B1B687B60104B114A1A60114B70
:1007D0003F221A60104B00221A60104B00221A6050
:1007E0000F4B00221A600F4B00221A600E4B3F2263
:1007F0001A600E4B3F221A6000BF0C37BD465DF8F1
:10080000047B704708E10F4008E60F402045024096
:100810004B434F4C24450240284502402C450240A2
:100820000044024020440240104502401C45024062
:1008300080B483B000AF0F4B1B687B600D4A0D4B3B
:100840001B6843F0200313600B4B0C4A1A600C4BDF
:1008500001221A600B4B0C221A600B4B13221A60F8
:100860000A4B1F221A6000BF0C37BD465DF8047B9F
:10087000704700BF08E60F40205502404B434F4CE5
:100880002455024000540240105502401C550240BD
:1008900090B5A9B000AFFFF78BFFFFF7BDFEFFF7E4
:1008A000C7FFFFF70BFDFFF7E1FC2B4B00221A609F
:1008B0002A4B00221A602A4B00221A60294B002280
:1008C0001A60294B00221A60284B00221A60284B1C
:1008D00000221A60274B00221A60274B00221A6060
:1008E000264B00221A60264B00221A60254B00225C
:1008F0001A600023C7F89C300023C7F89C30224AB6
:10090000214B1B6823F0040313601F4A1E4B1B6816
:1009100023F0080313601D4A4FF000034FF000045A
:10092000C2E900341A4A4FF000034FF00004C2E954
:100930000034184A4FF000034FF00004C2E90034BD
:10094000FFF7E2FE0346002B28D0FFF7DDFE02464C
:10095000114B1A6000F0DFBFB4060020280600200B
:10096000A806002018060020AC0600202006002063
:100970002C06002024060020F00400203006002071
:100980009C060020C4060020FC5302400005002005
:1009900008050020F8040020F4040020A34B1B6885
:1009A000002B00F0B587A14B1B68012B40F05A814A
:1009B000D7F89C30002B40F0A4800120FFF7A2FD67
:1009C0009B4B1B6801339A4A13609A4BD3E9000191
:1009D0004FF00002984B01F07BFC03460C46954A11
:1009E000C2E90034934BD3E900014FF00002934B6E
:1009F00001F020FE03460C46C7E92434D7E9240160
:100A000002F02AF802468E4B83FB02135911D317CA
:100A1000CB1A642101FB03F3D31A184601F0A4FD9D
:100A200003460C46C7E92434824BD3E90034184608
:100A3000214602F011F80346DBB23033DBB25BB281
:100A400087F848302E2387F84930D7E9240102F08F
:100A500003F803467B4A82FB03129210DB17D31A7A
:100A6000DBB23033DBB25BB287F84A30D7E924011E
:100A700001F0F2FF0146734B83FB01239A10CB1761
:100A8000D21A13469B0013445B00CA1AD3B2303308
:100A9000DBB25BB287F84B30202387F84C307423ED
:100AA00087F84D306C2387F84E30202387F84F307D
:100AB000612387F85030742387F85130742387F806
:100AC0005230692387F853306E2387F854306923F6
:100AD00087F855307A2387F85630002387F8573047
:100AE00007F148031A4600210120FFF7E7FD564BA6
:100AF0001B680133544A1360544B1B680133534A3B
:100B00001360D7F89C30012B40F002870120FFF7DB
:100B1000F9FC474B1B680133454A13604C4BD3E942
:100B200000014FF000024B4B01F0D2FB03460C4694
:100B3000474AC2E90034464BD3E900014FF00002B6
:100B40003E4B01F077FD03460C46C7E92234D7E956
:100B5000220101F081FF0246394B83FB0213591138
:100B6000D317CB1A642101FB03F3D31A184601F003
:100B7000FBFC03460C46C7E92234354BD3E900346D
:100B80001846214601F068FF0346DBB23033DBB282
:100B90005BB287F840302E2387F84130D7E9220135
:100BA00001F05AFF0346274A82FB03129210DB171B
:100BB000D31ADBB23033DBB25BB287F84230D7E90D
:100BC000220101F049FF01461E4B83FB01239A10CD
:100BD000CB17D21A13469B0013445B00CA1AD3B238
:100BE0003033DBB25BB287F84330742387F844308C
:100BF0006C2387F84530002387F8463007F140031F
:100C00001A4600210120FFF759FD134A0021022056
:100C1000FFF754FD114B1B69013B104A1361104B48
:100C20001B6801330E4A136000F072BEF40400200A
:100C3000F0040020000500200000D03F00005940D3
:100C40001F85EB5167666666CC06002024060020EF
:100C5000080500200000E03F342D0000340600208D
:100C6000B4060020A14B1B68022B40F05B81D7F833
:100C70009C30002B40F0A4800120FFF743FC9C4BEC
:100C80001B6801339A4A13609A4BD3E900014FF075
:100C90000002994B01F01CFB03460C46954AC2E941
:100CA0000034944BD3E900014FF00002934B01F064
:100CB000C1FC03460C46C7E92034D7E9200101F006
:100CC000CBFE02468E4B83FB02135911D317CB1A6E
:100CD000642101FB03F3D31A184601F045FC0346D7
:100CE0000C46C7E92034834BD3E90034184621462B
:100CF00001F0B2FE0346DBB23033DBB25BB287F801
:100D000030302E2387F83130D7E9200101F0A4FEDE
:100D100003467C4A82FB03129210DB17D31ADBB224
:100D20003033DBB25BB287F83230D7E9200101F013
:100D300093FE0146734B83FB01239A10CB17D21A03
:100D400013469B0013445B00CA1AD3B23033DBB2A4
:100D50005BB287F83330202387F83430742387F868
:100D600035306C2387F83630202387F837306123FD
:100D700087F83830742387F83930742387F83A308D
:100D8000692387F83B306E2387F83C30692387F866
:100D90003D307A2387F83E30002387F83F3007F153
:100DA00030031A4600210120FFF788FC564B5B6890
:100DB0000133554A5360554B1B680133534A136046
:100DC000D7F89C30012B40F0A3850120FFF79AFB58
:100DD000474B1B680133464A13604D4BD3E9000172
:100DE0004FF000024B4B01F073FA03460C46484AA1
:100DF000C2E90034464BD3E900014FF000023F4BFB
:100E000001F018FC03460C46C7E91E34D7E91E0161
:100E100001F022FE02463A4B83FB02135911D3170D
:100E2000CB1A642101FB03F3D31A184601F09CFB93
:100E300003460C46C7E91E34354BD3E90034184647
:100E4000214601F009FE0346DBB23033DBB25BB270
:100E500087F828302E2387F82930D7E91E0101F0C2
:100E6000FBFD0346274A82FB03129210DB17D31ABD
:100E7000DBB23033DBB25BB287F82A30D7E91E0130
:100E800001F0EAFD01461F4B83FB01239A10CB17AB
:100E9000D21A13469B0013445B00CA1AD3B23033F4
:100EA000DBB25BB287F82B30742387F82C306C23CD
:100EB00087F82D30002387F82E3007F128031A46D3
:100EC00000210120FFF7FAFB134A00210220FFF75F
:100ED000F5FB124B5B6A013B104A5362104B1B68D7
:100EE00001330F4A136000F013BD00BFF40400206B
:100EF000F0040020000500200000E03F0000594001
:100F00001F85EB5167666666CC0600202C06002024
:100F1000080500200000F03F402D000034060020AE
:100F200018060020994B1B68032B40F04B81D7F823
:100F30009C30002B40F09C800120FFF7E3FA944B9B
:100F40001B680133924A1360924BD3E900014FF0C2
:100F50000002914B01F0BCF903460C468D4AC2E9F0
:100F600000348C4BD3E900014FF000028B4B01F0B1
:100F700061FB03460C46C7E91C34D7E91C0101F0AC
:100F80006BFD0246864B83FB02135911D317CB1A14
:100F9000642101FB03F3D31A184601F0E5FA034676
:100FA0000C46C7E91C347B4BD3E900341846214674
:100FB00001F052FD0346DBB23033DBB25BB23B766D
:100FC0002E237B76D7E91C0101F046FD0346754AC6
:100FD00082FB03129210DB17D31ADBB23033DBB281
:100FE0005BB2BB76D7E91C0101F036FD01466D4BC3
:100FF00083FB01239A10CB17D21A13469B0013448C
:101000005B00CA1AD3B23033DBB25BB2FB7620236B
:101010003B7774237B776C23BB772023FB7761239B
:1010200087F82030742387F82130742387F8223022
:10103000692387F823306E2387F82430692387F8E3
:1010400025307A2387F82630002387F8273007F1E8
:1010500018031A4600210120FFF730FB524B9B6812
:101060000133514A9360514B1B6801334F4A13605F
:10107000D7F89C30012B40F04B840120FFF742FA57
:10108000434B1B680133424A1360494BD3E90001CB
:101090004FF00002474B01F01BF903460C46444A4F
:1010A000C2E90034424BD3E900014FF000023B4B50
:1010B00001F0C0FA03460C46C7E91A34D7E91A0111
:1010C00001F0CAFC0246364B83FB02135911D317B9
:1010D000CB1A642101FB03F3D31A184601F044FA3A
:1010E00003460C46C7E91A34314BD3E9003418469D
:1010F000214601F0B1FC0346DBB23033DBB25BB218
:101100003B742E237B74D7E91A0101F0A5FC03463A
:10111000244A82FB03129210DB17D31ADBB230335E
:10112000DBB25BB2BB74D7E91A0101F095FC014652
:101130001C4B83FB01239A10CB17D21A13469B003A
:1011400013445B00CA1AD3B23033DBB25BB2FB7418
:1011500074233B756C237B750023BB7507F110036B
:101160001A4600210120FFF7A9FA134A00210220A4
:10117000FFF7A4FA114B9B6B013B104A9363104B92
:101180001B6801330E4A1360C2E300BFF404002061
:10119000F0040020000500200000F03F000059404E
:1011A0001F85EB5167666666CC060020200600208E
:1011B000080500200000F83F4C2D000034060020F8
:1011C00028060020A94B1B68042B40F08D80D7F81F
:1011D0009C30012B40F09C830120FFF793F9A44B36
:1011E0001B680133A24A1360A24BD3E900014FF000
:1011F0000002A14B01F06CF803460C469D4AC2E97F
:1012000000349C4BD3E900014FF000029B4B01F0EE
:1012100011FA03460C46C7E91834D7E9180101F062
:101220001BFC0246964B83FB02135911D317CB1AB2
:10123000642101FB03F3D31A184601F095F9034624
:101240000C46C7E918348B4BD3E9003418462146C5
:1012500001F002FC0346DBB23033DBB25BB23B721F
:101260002E237B72D7E9180101F0F6FB0346854A6D
:1012700082FB03129210DB17D31ADBB23033DBB2DE
:101280005BB2BB72D7E9180101F0E6FB01467D4B6A
:1012900083FB01239A10CB17D21A13469B001344E9
:1012A0005B00CA1AD3B23033DBB25BB2FB72742379
:1012B0003B736C237B730023BB7307F108031A464F
:1012C00000210120FFF7FAF96F4A00210220FFF701
:1012D000F5F96E4BDB6C013B6C4AD3646C4B1B68BD
:1012E00001336B4A136013E3604B1B68052B40F01E
:1012F0008D80D7F89C30012B40F00A830120FFF746
:1013000001F95B4B1B680133594A1360594BD3E910
:1013100000014FF000024FF0804300F0D9FF034678
:101320000C46544AC2E90034524BD3E900014FF055
:101330000002524B01F07EF903460C46C7E9163411
:10134000D7E9160101F088FB02464D4B83FB0213DF
:101350005911D317CB1A642101FB03F3D31A184692
:1013600001F002F903460C46C7E91634414BD3E9B4
:1013700000341846214601F06FFB0346DBB23033E0
:10138000DBB25BB23B702E237B70D7E9160101F014
:1013900063FB03463B4A82FB03129210DB17D31A0E
:1013A000DBB23033DBB25BB2BB70D7E9160101F0C0
:1013B00053FB0146334B83FB01239A10CB17D21A00
:1013C00013469B0013445B00CA1AD3B23033DBB21E
:1013D0005BB2FB7074233B716C237B710023BB7188
:1013E0003B461A4600210120FFF768F9294A0021EF
:1013F0000220FFF763F9254B1B6E013B234A13665E
:10140000254B1B680133244A136081E2174B1B688C
:10141000062B0BD10120FFF775F8204A002101208F
:10142000FFF74CF90123C7F89C3071E20F4B1B68A2
:10143000072B40F091810120FFF764F80C4B1A68EC
:10144000174B1340002B03DA013B63F00303013316
:10145000012B2BD1134A00210120FFF72FF9124A4B
:10146000114B1B6843F00803136051E2F4040020A1
:10147000F0040020080500200000FC3F0000594057
:101480001F85EB51676666665C2D00003406002000
:10149000A8060020702D0000AC060020802D000062
:1014A00003000080942D0000FC530240984BD3E9C8
:1014B0000001984BD3E900341A46234600F006FF9A
:1014C00003460C46944AC2E90034934BD3E9000129
:1014D0004FF00002914B01F0ADF803460C46904AE4
:1014E000C2E900348E4BD3E900341846214601F09E
:1014F000B3FA02468B4B83FB02135911D317CB1A55
:10150000642101FB03F3D31A184601F02DF80346BA
:101510000C46834AC2E900347F4BD3E900341846B5
:10152000214601F099FA0346DBB23033DBB25AB2FE
:101530007D4B1A707C4B2E225A70794BD3E90034C4
:101540001846214601F088FA0346784A82FB0312C6
:101550009210DB17D31ADBB23033DBB25AB2724BC4
:101560009A706F4BD3E900341846214601F074FAA3
:1015700001466E4B83FB01239A10CB17D21A1346F8
:101580009B0013445B00CA1AD3B23033DBB25AB2A9
:10159000654BDA70644B74221A71634B6C225A717A
:1015A000614B00229A71604A00210120FFF786F802
:1015B0005F4A00210220FFF781F85E4A5D4B1B68FD
:1015C00043F004031360544BD3E900014FF00002D1
:1015D000524B01F02FF803460C461846214601F005
:1015E0003BFA0246544B1A60534B1B684D4A82FB30
:1015F00003125211DB17D31A504A13604F4B1B686A
:101600006FF0630202FB03F24B4B1B6813444A4A20
:101610001360494B1B68434A82FB03121211DB170C
:10162000D31A474A1360464B1B686FF0310202FB26
:1016300003F2414B1B6813443F4A13603E4B1B6847
:10164000384A82FB0312D210DB17D31A3D4A1360CB
:101650003C4B1B686FF0180202FB03F2364B1B6811
:101660001344354A1360384B1A68364B1B68D31A3B
:10167000354A1360344B5A68314B1B68D31A324ACF
:101680005360314B9A682D4B1B68D31A2E4A9360D6
:101690002A4B00221A602A4B00221A60294B002292
:1016A0001A600023C7F898302CE0D7F89830042B44
:1016B0000BDDD7F89830C3F10703234A52F82330E3
:1016C0001946224800F00CFC17E0D7F89820134682
:1016D0009B0013449B001E4A1344181D1C49D7F855
:1016E000982013469B0013449B000B4410331B6847
:1016F0001A460146174800F0F3FBD7F8983001333B
:10170000C7F89830D7F89830072BCEDD00E100BF3E
:101710000005002008050020F804002000005940C2
:10172000B80600201F85EB51A0060020676666669C
:10173000A42D0000FC530240C0060020300600200B
:101740009C060020C4060020CC060020B42D00001A
:1017500034060020B82D0000774B1B68082B40F0A2
:1017600089800120FEF7CEFE0023C7F89C30734A23
:10177000724B1B6823F004031360704A6F4B1B68A5
:1017800023F0080313606E4A4FF000034FF000048B
:10179000C2E900346B4A4FF000034FF00004C2E985
:1017A0000034694A4FF000034FF00004C2E90034EE
:1017B000664B1A69664B1B681344644A1361634B9A
:1017C0005A6A644B1B681344604A53625F4B9A6BBE
:1017D000614B1B6813445D4A93635C4BDA6C5F4B4F
:1017E0001B681344594AD364584B1A6E5C4B1B68F0
:1017F0001344564A13665B4B1A685B4B1B68D31A3B
:10180000584A1360574B5A68584B1B68D31A554AAD
:101810005360544B9A68564B1B68D31A514A9360D5
:101820004B4B00221A604C4B00221A604B4B00229B
:101830001A60484B00221A60494B00221A604C4B38
:1018400000221A60494B00221A60474B00221A609E
:10185000484B00221A60484B00221A60474B002276
:101860001A60474B00221A60464A00210120FEF709
:1018700025FF4DE0304B1B68092B49D10120FEF7B5
:1018800041FE0023C7F89C302D4A4FF000034FF073
:101890000004C2E900342B4A4FF000034FF000046B
:1018A000C2E90034284A4FF000034FF00004C2E9B7
:1018B0000034274B00221A60274B00221A60274B66
:1018C00000221A60234B00221A60254B00221A6066
:1018D000274B00221A60254B00221A60224B00225F
:1018E0001A60244B00221A60234B00221A60234BFB
:1018F00000221A60224B00221A60104A0F4B1B680C
:1019000023F004031360204A00210120FEF7D6FED5
:10191000094B00221A601D4B00221A6004E01B4B89
:101920001B680133194A1360184B1B68B3F57A7FA3
:10193000F5D3FFF705B800BFF4040020FC530240C4
:101940000005002008050020F804002034060020CF
:10195000B40600201806002028060020A806002053
:10196000AC060020CC060020240600202C06002017
:1019700020060020F0040020300600209C060020F5
:10198000C4060020C82D0000D42D0000B0060020A1
:1019900080B582B000AF134B7B60134B3B6007E018
:1019A0003B681A1D3A607A68111D796012681A60E6
:1019B0003B680E4A9342F3D30E480F494FF00002A2
:1019C0008842B8BF40F8042BFADB094A084B1B6871
:1019D00043F470031360FEF75BFF00BF0837BD469A
:1019E00080BD00BF3C30000000000020EC0400205F
:1019F00088ED00E0F0040020D806002080B400AF9D
:101A0000FEE700BF80B400AFFEE700BF80B400AFC8
:101A1000FEE700BF80B584B000AFF860B9607A60BF
:101A2000154AFB6852F82330184600F04FFB034676
:101A300083F00103DBB2002B19D1104AFB6852F886
:101A400023300F4A13600C4AFB6852F823301846C3
:101A500000F04FFB0A4B18686023BA68796800F001
:101A600008FC074B1B68184600F0EAFB00E000BFCB
:101A70001037BD4680BD00BF142E0000082E0000A8
:101A80001006002080B584B000AF78603960002374
:101A9000FB601AE07A68FB68134493F900300A2B64
:101AA00005D10E4B1B680D21184600F006FC0B4BB0
:101AB00018687A68FB68134493F90030DBB2194662
:101AC00000F0FBFBFB680133FB60FA683B689A425D
:101AD000E0D3FB6818461037BD4680BD10060020D5
:101AE00090B58FB000AF78603960E8E100237B6388
:101AF00002E07B6B01337B637A687B6B134493F961
:101B00000030252B06D07A687B6B134493F90030A4
:101B1000002BEED1796B7868FFF7B4FF7A687B6BA6
:101B200013447B607B6893F90030252B40F0C7811C
:101B30007B6801337B600023FB62202387F823301E
:101B40007B685A1C7A6093F90030253B532B00F2D6
:101B5000B18101A252F823F0A71E0000B51E0000BB
:101B6000B51E0000B51E0000B51E0000B51E000029
:101B7000B51E0000B51E0000B51E0000B51E000019
:101B8000B51E0000A91C0000A91C0000A91C000033
:101B9000A91C0000A91C0000A91C0000A91C000031
:101BA000A91C0000A91C0000A91C0000B51E000013
:101BB000B51E0000B51E0000B51E0000B51E0000D9
:101BC000B51E0000B51E0000B51E0000B51E0000C9
:101BD000B51E0000B51E0000B51E0000B51E0000B9
:101BE000B51E0000B51E0000B51E0000B51E0000A9
:101BF000B51E0000B51E0000B51E0000B51E000099
:101C0000B51E0000B51E0000B51E0000B51E000088
:101C1000B51E0000B51E0000B51E0000B51E000078
:101C2000B51E00008F1D0000B51E0000B51E00008F
:101C3000B51E0000B51E0000B51E0000B51E000058
:101C4000B51E0000B51E0000B51E0000B51E000048
:101C5000E11C0000F91C0000B51E0000B51E0000CC
:101C6000B51E0000B51E0000F91C0000B51E0000E6
:101C7000B51E0000B51E0000B51E0000B51E000018
:101C8000B51E00008F1D0000B51E0000B51E00002F
:101C9000231D0000B51E0000771D0000B51E0000CA
:101CA000B51E00008F1D00007B68013B93F90030DA
:101CB000302B05D1FB6A002B02D1302387F823306B
:101CC000FA6A13469B0013445B00FB627B68013B8E
:101CD00093F900301A46FB6A1344303BFB622FE74E
:101CE0003B681A1D3A601B68BB6107F118030121AC
:101CF0001846FFF7C7FEE2E03B681A1D3A601B6812
:101D0000BB6100233B63BB69002B05DABB695B4207
:101D1000BB6101237B6201E000237B620A23BB627B
:101D200040E03B681A1D3A601B68FB6100237B633F
:101D300002E07B6B01337B63FA697B6B134493F99D
:101D40000030002BF5D1796BF869FFF79BFEFA6A3A
:101D50007B6B9A4240F2B380FA6A7B6BD31AFB62C8
:101D600003E001215B48FFF78DFEFB6A5A1EFA6211
:101D7000002BF6D1A3E03B681A1D3A601B68BB61DB
:101D800000233B630A23BB6200237B620AE03B68BB
:101D90001A1D3A601B68BB6100233B631023BB62C2
:101DA00000237B6201237B6307E07B6BBA6A02FB43
:101DB00003F37B63FB6A013BFB627B6BBA6A02FB4A
:101DC00003F2BB699A4209D87B6BBA6A02FB03F241
:101DD000BB6AB2FBF3F27B6B9A42E6D07B6A002BC4
:101DE00002D0FB6A013BFB627B6A002B0ED097F9A5
:101DF0002330302B0AD13B6B5A1C3A6307F138026F
:101E000013442D2203F8302C00237B62FB6A012B44
:101E100016D9FB6A0F2B13D8FB6A013BFB620CE05F
:101E20003B6B5A1C3A6307F13802134497F823209E
:101E300003F8302CFB6A013BFB62FB6A002BEFD1FD
:101E40007B6A002B25D03B6B5A1C3A6307F13802A2
:101E500013442D2203F8302C1BE03B6B5A1C3A63D1
:101E60001D4CB9697A6BB1FBF2F2B96AB2FBF1F1C0
:101E7000B86A00FB01F1521A224492F9002007F1DE
:101E800038010B4403F8302C7A6BBB6AB2FBF3F3D6
:101E90007B637B6B002BE0D107F10803396B18469D
:101EA000FFF7F0FD0BE07B68013B01211846FFF7CF
:101EB000E9FD04E005210948FFF7E4FD00BF7B6868
:101EC00093F90030002B7FF411AE00BF3C37BD46C4
:101ED00090BD00BFFC2D0000E02D0000002E000092
:101EE0000FB480B582B000AF07F114037B6079684E
:101EF0003869FFF7F5FD00BF0837BD46BDE88040F3
:101F000004B07047D0F8003412F0010F10B500F59E
:101F1000806414BF0B438B43236012F0020FD0F890
:101F2000202400F5846314BF114322EA01011960E3
:101F300010BDF0B5C2F34116002441FA04F5ED07D7
:101F400011D5D0F8C47F65004FF0030C0CFA05FCE6
:101F500027EA0C07C0F8C47FD0F8C47F06FA05F55D
:101F60003D43C0F8C45F0134082CE6D1D0F80045E9
:101F700012F0010F00F5A06514BF0C438C432C60D8
:101F8000D0F8044512F0020F00F2045514BF0C43C0
:101F90008C432C60D0F8084512F0040F00F5A165C1
:101FA00014BF0C438C432C60D0F8184512F0080F76
:101FB00000F5A36514BF0C438C432C6012F0100F86
:101FC000D0F83C2500F23C5414BF0A438A432260F7
:101FD000D0F80C2513F0010F00F20C5414BF0A4383
:101FE0008A432260D0F8102513F0020F00F5A26496
:101FF00014BF0A438A432260D0F8142513F0040F5B
:1020000000F2145414BF0A438A432260D0F81C25FE
:1020100013F0080F00F21C5414BF0A438A432260D5
:10202000D0F8442513F4007F00F2445414BF0A434F
:102030008A432260D0F8402513F4407F00F5A8645D
:1020400014BF0A438A43226000F5A5621BB9D0F889
:102050002805014303E0D0F8283523EA0101116087
:10206000F0BD70B5022205460C46FFF74BFF28462F
:10207000214601220823BDE87040FFF75ABF000047
:10208000104BC0F3074210B501211C680E4B01FA3A
:1020900002F121424FEA420218BF01320F2153F8E8
:1020A0002230C0F30722D3F82C4501FA02F100F0E8
:1020B0000F0024EA010100FA02F21143C3F82C15C3
:1020C00010BD00BF6CE00F40202E0000C3B2C0F373
:1020D0000720990000F57E2341F0844203F540710A
:1020E00021F4700042EA40121368181C18BF012046
:1020F0007047C3B2C0F30720990000F57E2341F07A
:10210000844203F5C06121F4700042EA40120123C9
:10211000136070473F4B19681A69002AB4BF02F078
:10212000700301F03003202B70B515D004D853B1E3
:10213000102B6DD1384B10E0302B0AD0702B67D1AB
:102140004FF4004309E0C1F38410344B53F82030BE
:1021500003E047F2305300E0314B002A02DA12F478
:10216000006F01E011F4006F32D12E4D2C686D68C4
:1021700005F01F06701C4600C5F3042001307043B3
:10218000B3FBF0F0A305C4F3892444439B0DA40AD8
:1021900003FB00432448006800F47040B0F5804F12
:1021A00041F4800110D007D8B0F5005F13D0B0F52E
:1021B000405F0DD11D480FE0B0F5E04F06D0B0F5FF
:1021C000104F05D11A4807E01A4805E01A4803E005
:1021D0004FF0FF3000E0194811F4800F14D0002AAE
:1021E0000DDA510005D5110503D45B00C2F3865208
:1021F00001E0C2F3C552511CB3FBF1F304E0C1F39B
:10220000C352511CB3FBF1F3834238BF184670BD73
:10221000002070BD60E00F400024F400B02E0000EC
:1022200000093D0060E10F4010E00F4080F0FA022D
:10223000002D3101005A620240787D0100B4C404CF
:10224000C36A43F01001C162026B42F4407343F071
:1022500001010163704783691B07FCD4C16A21F047
:102260001002C262036B23F4407121F00102026389
:102270007047F8B504460E4615461F46FFF7EBFFBC
:10228000B6EB051F236B04D243F0200121636D08D8
:1022900002E023F020002063F600B6FBF5F2551CA7
:1022A000EB090020C5F345056362A562E762A06102
:1022B0002046BDE8F840FFF7C3BF83699A06FCD407
:1022C0000160704781F0004102E000BF83F00043ED
:1022D00030B54FEA41044FEA430594EA050F08BFC1
:1022E00090EA020F1FBF54EA000C55EA020C7FEA85
:1022F000645C7FEA655C00F0E2804FEA5454D4EB02
:102300005555B8BF6D420CDD2C4480EA020281EACB
:10231000030382EA000083EA010180EA020281EA03
:102320000303362D88BF30BD11F0004F4FEA013155
:102330004FF4801C4CEA113102D0404261EB410164
:1023400013F0004F4FEA03334CEA133302D05242EA
:1023500063EB430394EA050F00F0A780A4F10104A6
:10236000D5F1200E0DDB02FA0EFC22FA05F28018E0
:1023700041F1000103FA0EF2801843FA05F35941C6
:102380000EE0A5F120050EF1200E012A03FA0EFC45
:1023900028BF4CF0020C43FA05F3C01851EBE3716F
:1023A00001F0004507D54FF0000EDCF1000C7EEB8C
:1023B00000006EEB0101B1F5801F1BD3B1F5001FCA
:1023C0000CD349085FEA30004FEA3C0C04F10104E9
:1023D0004FEA445212F5800F80F09A80BCF1004F12
:1023E00008BF5FEA500C50F1000041EB045141EA94
:1023F000050130BD5FEA4C0C404141EB010111F495
:10240000801FA4F10104E9D191F0000F04BF01463F
:102410000020B1FA81F308BF2033A3F10B03B3F11D
:1024200020020CDA0C3208DD02F1140CC2F10C02AD
:1024300001FA0CF021FA02F10CE002F11402D8BF0B
:10244000C2F1200C01FA02F120FA0CFCDCBF41EAD7
:102450000C019040E41AA2BF01EB0451294330BDA6
:102460006FEA04041F3C1CDA0C340EDC04F1140483
:10247000C4F1200220FA04F001FA02F340EA03005A
:1024800021FA04F345EA030130BDC4F10C04C4F1A0
:10249000200220FA02F001FA04F340EA0300294680
:1024A00030BD21FA04F0294630BD94F0000F83F4CA
:1024B000801306BF81F480110134013D4EE77FEAAD
:1024C000645C18BF7FEA655C29D094EA050F08BFF9
:1024D00090EA020F05D054EA000C04BF19461046DA
:1024E00030BD91EA030F1EBF0021002030BD5FEA1E
:1024F000545C05D14000494128BF41F0004130BD46
:1025000014F580043CBF01F5801130BD01F0004599
:1025100045F0FE4141F470014FF0000030BD7FEA0C
:10252000645C1ABF194610467FEA655C1CBF0B4607
:10253000024650EA013406BF52EA033591EA030F1E
:1025400041F4002130BD00BF90F0000F04BF002116
:10255000704730B54FF4806404F132044FF0000549
:102560004FF0000150E700BF90F0000F04BF0021C2
:10257000704730B54FF4806404F1320410F0004528
:1025800048BF40424FF000013EE700BF42004FEA23
:10259000E2014FEA31014FEA02701FBF12F07F43A0
:1025A00093F07F4F81F06051704792F0000F14BF9D
:1025B00093F07F4F704730B54FF4607401F00045E1
:1025C00021F0004120E700BF50EA010208BF704738
:1025D00030B54FF000050AE050EA010208BF70472D
:1025E00030B511F0004502D5404261EB41014FF496
:1025F000806404F132045FEA915C3FF4DCAE4FF09A
:1026000003025FEADC0C18BF03325FEADC0C18BF80
:10261000033202EBDC02C2F1200300FA03FC20FAD1
:1026200002F001FA03FE40EA0E0021FA02F114441E
:10263000C1E600BF70B54FF0FF0C4CF4E06C1CEA33
:1026400011541DBF1CEA135594EA0C0F95EA0C0FA8
:1026500000F0DEF82C4481EA030621EA4C5123EA1B
:102660004C5350EA013518BF52EA033541F480114A
:1026700043F4801338D0A0FB02CE4FF00005E1FBFD
:1026800002E506F00042E0FB03E54FF00006E1FB47
:1026900003569CF0000F18BF4EF0010EA4F1FF048A
:1026A000B6F5007F64F5407404D25FEA4E0E6D41CA
:1026B00046EB060642EAC62141EA55514FEAC520DB
:1026C00040EA5E504FEACE2EB4F1FD0C88BFBCF557
:1026D000E06F1ED8BEF1004F08BF5FEA500E50F108
:1026E000000041EB045170BD06F0004646EA0101CE
:1026F00040EA020081EA0301B4EB5C04C2BFD4EB00
:102700000C0541EA045170BD41F480114FF0000EF8
:10271000013C00F3AB8014F1360FDEBF002001F066
:10272000004170BDC4F10004203C35DA0C341BDCE0
:1027300004F11404C4F1200500FA05F320FA04F0B2
:1027400001FA05F240EA020001F0004221F00041E6
:1027500010EBD37021FA04F642EB06015EEA430E59
:1027600008BF20EAD37070BDC4F10C04C4F1200589
:1027700000FA04F320FA05F001FA04F240EA02003C
:1027800001F0004110EBD37041F100015EEA430E0D
:1027900008BF20EAD37070BDC4F1200500FA05F22D
:1027A0004EEA020E20FA04F301FA05F243EA0203AC
:1027B00021FA04F001F0004121FA04F220EA0200BB
:1027C00000EBD3705EEA430E08BF20EAD37070BD01
:1027D00094F0000F0FD101F00046400041EB0101E1
:1027E00011F4801F08BF013CF7D041EA060195F0C3
:1027F000000F18BF704703F00046520043EB03037D
:1028000013F4801F08BF013DF7D043EA0603704769
:1028100094EA0C0F0CEA135518BF95EA0C0F0CD074
:1028200050EA410618BF52EA4306D1D181EA0301BA
:1028300001F000414FF0000070BD50EA410606BFB4
:102840001046194652EA430619D094EA0C0F02D1F9
:1028500050EA013613D195EA0C0F05D152EA03363E
:102860001CBF104619460AD181EA030101F000415C
:1028700041F0FE4141F470014FF0000070BD41F0A5
:10288000FE4141F4780170BD70B54FF0FF0C4CF47F
:10289000E06C1CEA11541DBF1CEA135594EA0C0F9E
:1028A00095EA0C0F00F0A7F8A4EB050481EA030EEB
:1028B00052EA03354FEA013100F088804FEA0333D2
:1028C0004FF0805545EA131343EA12634FEA0222A0
:1028D00045EA111545EA10654FEA00260EF0004161
:1028E0009D4208BF964244F1FD0404F5407402D2B3
:1028F0005B084FEA3202B61A65EB03055B084FEA44
:1029000032024FF480104FF4002CB6EB020E75EB40
:10291000030E22BFB61A754640EA0C005B084FEA68
:102920003202B6EB020E75EB030E22BFB61A7546E5
:1029300040EA5C005B084FEA3202B6EB020E75EB30
:10294000030E22BFB61A754640EA9C005B084FEAA8
:102950003202B6EB020E75EB030E22BFB61A7546B5
:1029600040EADC0055EA060E18D04FEA051545EAA4
:1029700016754FEA06164FEAC30343EA52734FEA4D
:10298000C2025FEA1C1CC0D111F4801F0BD141EAC6
:1029900000014FF000004FF0004CB6E711F4801F2B
:1029A00004BF01430020B4F1FD0C88BFBCF5E06F0B
:1029B0003FF6AFAEB5EB030C04BFB6EB020C5FEA1B
:1029C000500C50F1000041EB045170BD0EF0004E70
:1029D0004EEA113114EB5C04C2BFD4EB0C0541EAA2
:1029E000045170BD41F480114FF0000E013C90E69F
:1029F00045EA060E8DE60CEA135594EA0C0F08BF63
:102A000095EA0C0F3FF43BAF94EA0C0F0AD150EA61
:102A100001347FF434AF95EA0C0F7FF425AF1046F4
:102A200019462CE795EA0C0F06D152EA03353FF41C
:102A3000FDAE1046194622E750EA410618BF52EA99
:102A400043067FF4C5AE50EA41047FF40DAF52EA6D
:102A500043057FF4EBAE12E74FEA410212F5001294
:102A600015D211D56FF47873B3EB625212D94FEAD5
:102A7000C12343F0004343EA505311F0004F23FABF
:102A800002F018BF404270474FF00000704750EA14
:102A9000013005D111F0004008BF6FF000407047D1
:102AA0004FF00000704700BF0A22002100F034B947
:102AB0000A23002200F09CB880EA0102844612F04A
:102AC000030F4FD111F0030F32D14DF8044D11F027
:102AD000040F51F8043B0BD0A3F101329A4312F0DA
:102AE000803F04BF4CF8043B51F8043B16D100BFB3
:102AF00051F8044BA3F101329A4312F0803FA4F144
:102B000001320BD14CF8043BA24312F0803F04BFCA
:102B100051F8043B4CF8044BEAD023460CF8013B37
:102B200013F0FF0F4FEA3323F8D15DF8044B7047E1
:102B300011F0010F06D011F8012B0CF8012B002A1F
:102B400008BF704711F0020FBFD031F8022B12F00E
:102B5000FF0F16BF2CF8022B8CF8002012F47F4FC9
:102B6000B3D1704711F8012B0CF8012B002AF9D1D1
:102B7000704700BF024B1A6801235C3200F002B8B4
:102B8000B8000020F0B420B307460D4617F8016BDB
:102B900001E0A64216D015F8014B002CF9D1EEB198
:102BA0003E460C4616F8015B00E073B114F8013B99
:102BB0009D42FAD15DB100233B7016600646304657
:102BC000F0BC704763B13846DEE73746E8E72E468B
:102BD000F3E710680028D7D10646F0E71660EEE765
:102BE000176006460370EAE70123FFF7CBBF00BF7B
:102BF0002DE9F04F474C83460E46D4F800E000E044
:102C00002646344614F8015B0EEB0500407800F0D0
:102C1000080000F0FF080028F2D12D2D5CD02B2DEC
:102C200004BF7578B41C002B3ED0102B60D09A46A0
:102C3000B8F1000F0CBF6FF000404FF000400027CC
:102C4000B0FBFAF9BC460AFB19000CE0303DAB4280
:102C500019DD7E1C05D0CC4523D820D00AFB0C5CA6
:102C6000012714F8015B0EEB0506767816F0040FC9
:102C7000ECD116F0030606D0012E14BF57263726D6
:102C8000AD1BAB42E5DC7B1C16D0B8F1000F10D1B8
:102C90006046002A39D0DFB91160BDE8F08F854267
:102CA000DCDD4FF0FF37DCE7302D1AD00A239A46DF
:102CB000BEE7CCF1000CEBE7B8F1000F4FF02203B8
:102CC0000CBF6FF000404FF00040CBF80030F2B185
:102CD000611E1160BDE8F08FB41C75784FF00108DB
:102CE000A1E7237803F0DF03582B08D008239EE7E1
:102CF000302D9CD1207800F0DF00582897D14FF07C
:102D0000100A65785346023492E7BDE8F08FBDE8BB
:102D1000F08F00BFE804002010B4044C13460A46AC
:102D2000014620685DF8044BFFF762BFB800002041
:102D30002C000000737520616C64696E697A000074
:102D400063617920616C64696E697A006B61687691
:102D50006520616C64696E697A00000063696B6F5D
:102D60006C61746120616C64696E697A00000000B6
:102D70006269736B75766920616C64696E697A004B
:102D80007572756E20736563696D2069736C656D0E
:102D900069000000706172612074616B696C646924
:102DA000000000005061726120757374756E757A51
:102DB0000000000025640A0053746F6B2025733DEA
:102DC0002025640A0000000072657365746C656EEE
:102DD000646900004261736120446F6E6D6500009C
:102DE0003031323334353637383961626364656681
:102DF00000000000082008000D0A0000200000006C
:102E00004552524F5200000000C0004000D0004028
:102E100000E00040001800F0011800F0021800F077
:102E200000400040008005400050004000900540F8
:102E30000060004000A005400070004000B0054068
:102E40000040024000C005400050024000D0054054
:102E50000060024000E005400070024000F00540C4
:102E600000D003400000064000100640001006405D
:102E7000002006400020064000300640003006409A
:102E8000004006400040064000500640005006400A
:102E9000006006400060064000700640007006407A
:102EA00000800640008006400090064000900640EA
:102EB00040420F0000201C0080841E00008025007E
:102EC000999E36000040380000093D0000803E0019
:102ED00000004B00404B4C0000204E00808D5B00FA
:102EE00000C05D000080700000127A0000007D00CC
:102EF00080969800001BB7000080BB00C0E8CE00A1
:102F0000647ADA000024F4000000FA0080A81201BC
:102F1000002D310100366E0140787D014300000034
:102F20000020202020202020202028282828282099
:102F30002020202020202020202020202020202091
:102F400020881010101010101010101010101010F9
:102F500010040404040404040404041010101010E9
:102F600010104141414141410101010101010101B3
:102F70000101010101010101010101011010101005
:102F80001010424242424242020202020202020285
:102F900002020202020202020202020210101010D9
:102FA0002000000000000000000000000000000001
:102FB0000000000000000000000000000000000011
:102FC0000000000000000000000000000000000001
:102FD00000000000000000000000000000000000F1
:102FE00000000000000000000000000000000000E1
:102FF00000000000000000000000000000000000D1
:1030000000000000000000000000000000000000C0
:1030100000000000000000000000000000000000B0
:1030200000000000F8B500BFF8BC08BC9E46704721
:0C303000F8B500BFF8BC08BC9E46704715
:10303C0032302C32302C3130000000000000000007
:10304C000000000000000000000000000000312C17
:10305C0073752C33302C3530206B75727573000002
:10306C00000000000000000000000000322C636132
:10307C00792C32302C3120746C00000000000000E0
:10308C0000000000000000000000332C6B6168762B
:10309C00652C31352C312E3520746C00000000006D
:1030AC000000000000000000342C63696B6F6C6141
:1030BC0074612C35302C312E373520746C000000A7
:1030CC00000000000000352C6269736B7576692C6A
:1030DC003130302C3220746C0000000000000000F5
:1030EC000000000000000000C000002000000000F4
:1030FC0000000000AC030020140400207C0400201D
:10310C0000000000000000000000000000000000B3
:10311C0000000000000000000000000000000000A3
:10312C00000000001C2F0000000000000000000048
:10313C000000000000000000000000000000000083
:10314C000000000000000000000000000000000073
:10315C000000000000000000000000000000000063
:10316C000000000000000000000000000000000053
:10317C000000000000000000000000000000000043
:10318C000000000000000000000000000000000033
:10319C000000000000000000010000000000000022
:1031AC000E33CDAB34126DE6ECDE05000B000000E7
:1031BC000000000000000000000000000000000003
:1031CC0000000000000000000000000000000000F3
:1031DC0000000000000000000000000000000000E3
:1031EC0000000000000000000000000000000000D3
:0C351C000000000000000000202F000054
:00000001FF
